{
    "_format": "hh-sol-artifact-1",
    "contractName": "MarketPlace",
    "sourceName": "contracts/MarketPlace.sol",
    "abi": [
        {
            "inputs": [],
            "stateMutability": "nonpayable",
            "type": "constructor"
        },
        {
            "inputs": [
                {
                    "internalType": "string",
                    "name": "label",
                    "type": "string"
                },
                {
                    "internalType": "uint256",
                    "name": "price",
                    "type": "uint256"
                }
            ],
            "name": "addNFT",
            "outputs": [],
            "stateMutability": "nonpayable",
            "type": "function"
        },
        {
            "inputs": [
                {
                    "internalType": "uint256",
                    "name": "id",
                    "type": "uint256"
                }
            ],
            "name": "buyNFT",
            "outputs": [],
            "stateMutability": "payable",
            "type": "function"
        },
        {
            "inputs": [
                {
                    "internalType": "uint256",
                    "name": "id",
                    "type": "uint256"
                }
            ],
            "name": "delistNFT",
            "outputs": [],
            "stateMutability": "nonpayable",
            "type": "function"
        },
        {
            "inputs": [],
            "name": "getNFTList",
            "outputs": [
                {
                    "components": [
                        {
                            "internalType": "uint256",
                            "name": "id",
                            "type": "uint256"
                        },
                        {
                            "internalType": "string",
                            "name": "label",
                            "type": "string"
                        },
                        {
                            "internalType": "address",
                            "name": "currentOwner",
                            "type": "address"
                        },
                        {
                            "internalType": "uint256",
                            "name": "price",
                            "type": "uint256"
                        },
                        {
                            "internalType": "bool",
                            "name": "isListed",
                            "type": "bool"
                        }
                    ],
                    "internalType": "struct MarketPlace.NFT[]",
                    "name": "",
                    "type": "tuple[]"
                }
            ],
            "stateMutability": "view",
            "type": "function"
        },
        {
            "inputs": [],
            "name": "getUserNFTList",
            "outputs": [
                {
                    "components": [
                        {
                            "internalType": "uint256",
                            "name": "id",
                            "type": "uint256"
                        },
                        {
                            "internalType": "string",
                            "name": "label",
                            "type": "string"
                        },
                        {
                            "internalType": "address",
                            "name": "currentOwner",
                            "type": "address"
                        },
                        {
                            "internalType": "uint256",
                            "name": "price",
                            "type": "uint256"
                        },
                        {
                            "internalType": "bool",
                            "name": "isListed",
                            "type": "bool"
                        }
                    ],
                    "internalType": "struct MarketPlace.NFT[]",
                    "name": "",
                    "type": "tuple[]"
                }
            ],
            "stateMutability": "view",
            "type": "function"
        },
        {
            "inputs": [
                {
                    "internalType": "uint256",
                    "name": "id",
                    "type": "uint256"
                },
                {
                    "internalType": "uint256",
                    "name": "price",
                    "type": "uint256"
                }
            ],
            "name": "listNFT",
            "outputs": [],
            "stateMutability": "nonpayable",
            "type": "function"
        },
        {
            "inputs": [],
            "name": "owner",
            "outputs": [
                {
                    "internalType": "address",
                    "name": "",
                    "type": "address"
                }
            ],
            "stateMutability": "view",
            "type": "function"
        }
    ],
    "bytecode": "0x608060405234801561001057600080fd5b50336000806101000a81548173ffffffffffffffffffffffffffffffffffffffff021916908373ffffffffffffffffffffffffffffffffffffffff160217905550611948806100606000396000f3fe6080604052600436106100705760003560e01c806394383f141161004e57806394383f14146100e7578063b399069f14610110578063cb917b9c1461013b578063e386a7ca1461016457610070565b8063445a21121461007557806351ed8288146100a05780638da5cb5b146100bc575b600080fd5b34801561008157600080fd5b5061008a61018d565b60405161009791906115d0565b60405180910390f35b6100ba60048036038101906100b591906113dc565b6103f8565b005b3480156100c857600080fd5b506100d16106d4565b6040516100de91906115b5565b60405180910390f35b3480156100f357600080fd5b5061010e60048036038101906101099190611405565b6106f8565b005b34801561011c57600080fd5b506101256107c4565b60405161013291906115d0565b60405180910390f35b34801561014757600080fd5b50610162600480360381019061015d91906113dc565b610977565b005b34801561017057600080fd5b5061018b60048036038101906101869190611388565b610a19565b005b606060006001805461019f919061169d565b67ffffffffffffffff8111156101de577f4e487b7100000000000000000000000000000000000000000000000000000000600052604160045260246000fd5b60405190808252806020026020018201604052801561021757816020015b610204610fc2565b8152602001906001900390816101fc5790505b509050600080600090505b60018054610230919061169d565b8110156103ef5760006002600083815260200190815260200160002090508060040160009054906101000a900460ff16156103cd57806040518060a00160405290816000820154815260200160018201805461028b906117b1565b80601f01602080910402602001604051908101604052809291908181526020018280546102b7906117b1565b80156103045780601f106102d957610100808354040283529160200191610304565b820191906000526020600020905b8154815290600101906020018083116102e757829003601f168201915b505050505081526020016002820160009054906101000a900473ffffffffffffffffffffffffffffffffffffffff1673ffffffffffffffffffffffffffffffffffffffff1673ffffffffffffffffffffffffffffffffffffffff168152602001600382015481526020016004820160009054906101000a900460ff1615151515815250508484815181106103c1577f4e487b7100000000000000000000000000000000000000000000000000000000600052603260045260246000fd5b60200260200101819052505b82806103d890611814565b9350505080806103e790611814565b915050610222565b50819250505090565b60008054906101000a900473ffffffffffffffffffffffffffffffffffffffff1673ffffffffffffffffffffffffffffffffffffffff163373ffffffffffffffffffffffffffffffffffffffff16141561045157600080fd5b600260008281526020019081526020016000206003015434101561047457600080fd5b60006002600083815260200190815260200160002060020160009054906101000a900473ffffffffffffffffffffffffffffffffffffffff1690508073ffffffffffffffffffffffffffffffffffffffff166108fc349081150290604051600060405180830381858888f193505050501580156104f5573d6000803e3d6000fd5b50610536826002600085815260200190815260200160002060020160009054906101000a900473ffffffffffffffffffffffffffffffffffffffff16610c8f565b336002600084815260200190815260200160002060020160006101000a81548173ffffffffffffffffffffffffffffffffffffffff021916908373ffffffffffffffffffffffffffffffffffffffff160217905550600360003373ffffffffffffffffffffffffffffffffffffffff1673ffffffffffffffffffffffffffffffffffffffff168152602001908152602001600020600260008481526020019081526020016000209080600181540180825580915050600190039060005260206000209060050201600090919091909150600082015481600001556001820181600101908054610624906117b1565b61062f929190611009565b506002820160009054906101000a900473ffffffffffffffffffffffffffffffffffffffff168160020160006101000a81548173ffffffffffffffffffffffffffffffffffffffff021916908373ffffffffffffffffffffffffffffffffffffffff160217905550600382015481600301556004820160009054906101000a900460ff168160040160006101000a81548160ff02191690831515021790555050505050565b60008054906101000a900473ffffffffffffffffffffffffffffffffffffffff1681565b816002600082815260200190815260200160002060020160009054906101000a900473ffffffffffffffffffffffffffffffffffffffff1673ffffffffffffffffffffffffffffffffffffffff163373ffffffffffffffffffffffffffffffffffffffff161461076757600080fd5b600082101561077557600080fd5b60016002600085815260200190815260200160002060040160006101000a81548160ff021916908315150217905550816002600085815260200190815260200160002060030181905550505050565b6060600360003373ffffffffffffffffffffffffffffffffffffffff1673ffffffffffffffffffffffffffffffffffffffff168152602001908152602001600020805480602002602001604051908101604052809291908181526020016000905b8282101561096e57838290600052602060002090600502016040518060a001604052908160008201548152602001600182018054610862906117b1565b80601f016020809104026020016040519081016040528092919081815260200182805461088e906117b1565b80156108db5780601f106108b0576101008083540402835291602001916108db565b820191906000526020600020905b8154815290600101906020018083116108be57829003601f168201915b505050505081526020016002820160009054906101000a900473ffffffffffffffffffffffffffffffffffffffff1673ffffffffffffffffffffffffffffffffffffffff1673ffffffffffffffffffffffffffffffffffffffff168152602001600382015481526020016004820160009054906101000a900460ff16151515158152505081526020019060010190610825565b50505050905090565b806002600082815260200190815260200160002060020160009054906101000a900473ffffffffffffffffffffffffffffffffffffffff1673ffffffffffffffffffffffffffffffffffffffff163373ffffffffffffffffffffffffffffffffffffffff16146109e657600080fd5b60006002600084815260200190815260200160002060040160006101000a81548160ff0219169083151502179055505050565b60008054906101000a900473ffffffffffffffffffffffffffffffffffffffff1673ffffffffffffffffffffffffffffffffffffffff163373ffffffffffffffffffffffffffffffffffffffff161415610a7257600080fd5b60016000815480929190610a8590611814565b91905055506000600154905060006040518060a0016040528060015481526020018581526020013373ffffffffffffffffffffffffffffffffffffffff1681526020018481526020016000151581525090508060026000848152602001908152602001600020600082015181600001556020820151816001019080519060200190610b11929190611096565b5060408201518160020160006101000a81548173ffffffffffffffffffffffffffffffffffffffff021916908373ffffffffffffffffffffffffffffffffffffffff1602179055506060820151816003015560808201518160040160006101000a81548160ff021916908315150217905550905050600360003373ffffffffffffffffffffffffffffffffffffffff1673ffffffffffffffffffffffffffffffffffffffff168152602001908152602001600020819080600181540180825580915050600190039060005260206000209060050201600090919091909150600082015181600001556020820151816001019080519060200190610c15929190611096565b5060408201518160020160006101000a81548173ffffffffffffffffffffffffffffffffffffffff021916908373ffffffffffffffffffffffffffffffffffffffff1602179055506060820151816003015560808201518160040160006101000a81548160ff021916908315150217905550505050505050565b6000600360008373ffffffffffffffffffffffffffffffffffffffff1673ffffffffffffffffffffffffffffffffffffffff168152602001908152602001600020905060005b8180549050811015610f6d5783828281548110610d1b577f4e487b7100000000000000000000000000000000000000000000000000000000600052603260045260246000fd5b9060005260206000209060050201600001541415610f5a57600182805490501115610eaa578160018380549050610d5291906116f3565b81548110610d89577f4e487b7100000000000000000000000000000000000000000000000000000000600052603260045260246000fd5b9060005260206000209060050201828281548110610dd0577f4e487b7100000000000000000000000000000000000000000000000000000000600052603260045260246000fd5b9060005260206000209060050201600082015481600001556001820181600101908054610dfc906117b1565b610e07929190611009565b506002820160009054906101000a900473ffffffffffffffffffffffffffffffffffffffff168160020160006101000a81548173ffffffffffffffffffffffffffffffffffffffff021916908373ffffffffffffffffffffffffffffffffffffffff160217905550600382015481600301556004820160009054906101000a900460ff168160040160006101000a81548160ff0219169083151502179055509050505b81805480610ee1577f4e487b7100000000000000000000000000000000000000000000000000000000600052603160045260246000fd5b6001900381819060005260206000209060050201600080820160009055600182016000610f0e919061111c565b6002820160006101000a81549073ffffffffffffffffffffffffffffffffffffffff021916905560038201600090556004820160006101000a81549060ff021916905550509055610f6d565b8080610f6590611814565b915050610cd5565b5080600360008473ffffffffffffffffffffffffffffffffffffffff1673ffffffffffffffffffffffffffffffffffffffff168152602001908152602001600020908054610fbc92919061115c565b50505050565b6040518060a001604052806000815260200160608152602001600073ffffffffffffffffffffffffffffffffffffffff168152602001600081526020016000151581525090565b828054611015906117b1565b90600052602060002090601f0160209004810192826110375760008555611085565b82601f106110485780548555611085565b8280016001018555821561108557600052602060002091601f016020900482015b82811115611084578254825591600101919060010190611069565b5b509050611092919061127c565b5090565b8280546110a2906117b1565b90600052602060002090601f0160209004810192826110c4576000855561110b565b82601f106110dd57805160ff191683800117855561110b565b8280016001018555821561110b579182015b8281111561110a5782518255916020019190600101906110ef565b5b509050611118919061127c565b5090565b508054611128906117b1565b6000825580601f1061113a5750611159565b601f016020900490600052602060002090810190611158919061127c565b5b50565b82805482825590600052602060002090600502810192821561126b5760005260206000209160050282015b8281111561126a5782826000820154816000015560018201816001019080546111af906117b1565b6111ba929190611009565b506002820160009054906101000a900473ffffffffffffffffffffffffffffffffffffffff168160020160006101000a81548173ffffffffffffffffffffffffffffffffffffffff021916908373ffffffffffffffffffffffffffffffffffffffff160217905550600382015481600301556004820160009054906101000a900460ff168160040160006101000a81548160ff021916908315150217905550505091600501919060050190611187565b5b5090506112789190611299565b5090565b5b8082111561129557600081600090555060010161127d565b5090565b5b80821115611307576000808201600090556001820160006112bb919061111c565b6002820160006101000a81549073ffffffffffffffffffffffffffffffffffffffff021916905560038201600090556004820160006101000a81549060ff02191690555060050161129a565b5090565b600061131e61131984611617565b6115f2565b90508281526020810184848401111561133657600080fd5b61134184828561176f565b509392505050565b600082601f83011261135a57600080fd5b813561136a84826020860161130b565b91505092915050565b600081359050611382816118fb565b92915050565b6000806040838503121561139b57600080fd5b600083013567ffffffffffffffff8111156113b557600080fd5b6113c185828601611349565b92505060206113d285828601611373565b9150509250929050565b6000602082840312156113ee57600080fd5b60006113fc84828501611373565b91505092915050565b6000806040838503121561141857600080fd5b600061142685828601611373565b925050602061143785828601611373565b9150509250929050565b600061144d8383611530565b905092915050565b61145e81611727565b82525050565b61146d81611727565b82525050565b600061147e82611658565b611488818561167b565b93508360208202850161149a85611648565b8060005b858110156114d657848403895281516114b78582611441565b94506114c28361166e565b925060208a0199505060018101905061149e565b50829750879550505050505092915050565b6114f181611739565b82525050565b600061150282611663565b61150c818561168c565b935061151c81856020860161177e565b611525816118ea565b840191505092915050565b600060a08301600083015161154860008601826115a6565b506020830151848203602086015261156082826114f7565b91505060408301516115756040860182611455565b50606083015161158860608601826115a6565b50608083015161159b60808601826114e8565b508091505092915050565b6115af81611765565b82525050565b60006020820190506115ca6000830184611464565b92915050565b600060208201905081810360008301526115ea8184611473565b905092915050565b60006115fc61160d565b905061160882826117e3565b919050565b6000604051905090565b600067ffffffffffffffff821115611632576116316118bb565b5b61163b826118ea565b9050602081019050919050565b6000819050602082019050919050565b600081519050919050565b600081519050919050565b6000602082019050919050565b600082825260208201905092915050565b600082825260208201905092915050565b60006116a882611765565b91506116b383611765565b9250827fffffffffffffffffffffffffffffffffffffffffffffffffffffffffffffffff038211156116e8576116e761185d565b5b828201905092915050565b60006116fe82611765565b915061170983611765565b92508282101561171c5761171b61185d565b5b828203905092915050565b600061173282611745565b9050919050565b60008115159050919050565b600073ffffffffffffffffffffffffffffffffffffffff82169050919050565b6000819050919050565b82818337600083830152505050565b60005b8381101561179c578082015181840152602081019050611781565b838111156117ab576000848401525b50505050565b600060028204905060018216806117c957607f821691505b602082108114156117dd576117dc61188c565b5b50919050565b6117ec826118ea565b810181811067ffffffffffffffff8211171561180b5761180a6118bb565b5b80604052505050565b600061181f82611765565b91507fffffffffffffffffffffffffffffffffffffffffffffffffffffffffffffffff8214156118525761185161185d565b5b600182019050919050565b7f4e487b7100000000000000000000000000000000000000000000000000000000600052601160045260246000fd5b7f4e487b7100000000000000000000000000000000000000000000000000000000600052602260045260246000fd5b7f4e487b7100000000000000000000000000000000000000000000000000000000600052604160045260246000fd5b6000601f19601f8301169050919050565b61190481611765565b811461190f57600080fd5b5056fea26469706673582212209acbba09eeb0195a062a5eb6c1c25593a03f65f0d279ef0876f749efbf408d0464736f6c63430008010033",
    "linkReferences": {},
    "deployedLinkReferences": {}
}