{
  "_format": "hh-sol-artifact-1",
  "contractName": "MarketPlace",
  "sourceName": "contracts/MarketPlace.sol",
  "abi": [
    {
      "inputs": [],
      "stateMutability": "nonpayable",
      "type": "constructor"
    },
    {
      "inputs": [
        {
          "internalType": "string",
          "name": "name",
          "type": "string"
        },
        {
          "internalType": "uint256",
          "name": "price",
          "type": "uint256"
        },
        {
          "internalType": "string",
          "name": "imageUrl",
          "type": "string"
        },
        {
          "internalType": "bool",
          "name": "isListed",
          "type": "bool"
        }
      ],
      "name": "addNFT",
      "outputs": [],
      "stateMutability": "nonpayable",
      "type": "function"
    },
    {
      "inputs": [
        {
          "internalType": "uint256",
          "name": "id",
          "type": "uint256"
        },
        {
          "internalType": "string",
          "name": "name",
          "type": "string"
        },
        {
          "internalType": "uint256",
          "name": "price",
          "type": "uint256"
        },
        {
          "internalType": "string",
          "name": "imageUrl",
          "type": "string"
        },
        {
          "internalType": "bool",
          "name": "isListed",
          "type": "bool"
        }
      ],
      "name": "editNFT",
      "outputs": [],
      "stateMutability": "nonpayable",
      "type": "function"
    },
    {
      "inputs": [
        {
          "internalType": "address",
          "name": "user",
          "type": "address"
        }
      ],
      "name": "getUserNFTList",
      "outputs": [
        {
          "components": [
            {
              "internalType": "uint256",
              "name": "id",
              "type": "uint256"
            },
            {
              "internalType": "string",
              "name": "name",
              "type": "string"
            },
            {
              "internalType": "address",
              "name": "currentOwner",
              "type": "address"
            },
            {
              "internalType": "uint256",
              "name": "price",
              "type": "uint256"
            },
            {
              "internalType": "string",
              "name": "imageUrl",
              "type": "string"
            },
            {
              "internalType": "bool",
              "name": "isListed",
              "type": "bool"
            }
          ],
          "internalType": "struct MarketPlace.NFT[]",
          "name": "",
          "type": "tuple[]"
        }
      ],
      "stateMutability": "view",
      "type": "function"
    },
    {
      "inputs": [
        {
          "internalType": "uint256",
          "name": "",
          "type": "uint256"
        }
      ],
      "name": "items",
      "outputs": [
        {
          "internalType": "uint256",
          "name": "id",
          "type": "uint256"
        },
        {
          "internalType": "string",
          "name": "name",
          "type": "string"
        },
        {
          "internalType": "address",
          "name": "currentOwner",
          "type": "address"
        },
        {
          "internalType": "uint256",
          "name": "price",
          "type": "uint256"
        },
        {
          "internalType": "string",
          "name": "imageUrl",
          "type": "string"
        },
        {
          "internalType": "bool",
          "name": "isListed",
          "type": "bool"
        }
      ],
      "stateMutability": "view",
      "type": "function"
    },
    {
      "inputs": [],
      "name": "owner",
      "outputs": [
        {
          "internalType": "address",
          "name": "",
          "type": "address"
        }
      ],
      "stateMutability": "view",
      "type": "function"
    }
  ],
  "bytecode": "0x608060405234801561001057600080fd5b50336000806101000a81548173ffffffffffffffffffffffffffffffffffffffff021916908373ffffffffffffffffffffffffffffffffffffffff16021790555061127a806100606000396000f3fe608060405234801561001057600080fd5b50600436106100575760003560e01c80630364a0111461005c5780638da5cb5b1461008c578063a56c5f45146100aa578063aca4eed0146100c6578063bfb231d2146100e2575b600080fd5b61007660048036038101906100719190610afc565b610117565b6040516100839190610e88565b60405180910390f35b610094610471565b6040516100a19190610e6d565b60405180910390f35b6100c460048036038101906100bf9190610be1565b610495565b005b6100e060048036038101906100db9190610b25565b6105f0565b005b6100fc60048036038101906100f79190610bb8565b6107eb565b60405161010e96959493929190610eaa565b60405180910390f35b60606000600360008473ffffffffffffffffffffffffffffffffffffffff1673ffffffffffffffffffffffffffffffffffffffff1681526020019081526020016000208054806020026020016040519081016040528092919081815260200182805480156101a457602002820191906000526020600020905b815481526020019060010190808311610190575b505050505090506000600182516101bb9190610fd5565b67ffffffffffffffff8111156101fa577f4e487b7100000000000000000000000000000000000000000000000000000000600052604160045260246000fd5b60405190808252806020026020018201604052801561023357816020015b610220610964565b8152602001906001900390816102185790505b50905060005b8251811015610466576000600260008381526020019081526020016000209050806040518060c00160405290816000820154815260200160018201805461027f906110b5565b80601f01602080910402602001604051908101604052809291908181526020018280546102ab906110b5565b80156102f85780601f106102cd576101008083540402835291602001916102f8565b820191906000526020600020905b8154815290600101906020018083116102db57829003601f168201915b505050505081526020016002820160009054906101000a900473ffffffffffffffffffffffffffffffffffffffff1673ffffffffffffffffffffffffffffffffffffffff1673ffffffffffffffffffffffffffffffffffffffff16815260200160038201548152602001600482018054610371906110b5565b80601f016020809104026020016040519081016040528092919081815260200182805461039d906110b5565b80156103ea5780601f106103bf576101008083540402835291602001916103ea565b820191906000526020600020905b8154815290600101906020018083116103cd57829003601f168201915b505050505081526020016005820160009054906101000a900460ff161515151581525050838381518110610447577f4e487b7100000000000000000000000000000000000000000000000000000000600052603260045260246000fd5b602002602001018190525050808061045e90611118565b915050610239565b508092505050919050565b60008054906101000a900473ffffffffffffffffffffffffffffffffffffffff1681565b846002600082815260200190815260200160002060020160009054906101000a900473ffffffffffffffffffffffffffffffffffffffff1673ffffffffffffffffffffffffffffffffffffffff163373ffffffffffffffffffffffffffffffffffffffff161461050457600080fd5b8460026000888152602001908152602001600020600101908051906020019061052e9291906109b2565b50836002600088815260200190815260200160002060030181905550826002600088815260200190815260200160002060040190805190602001906105749291906109b2565b5060006002600088815260200190815260200160002060050160006101000a81548160ff02191690831515021790555081156105e85760008410156105b857600080fd5b60016002600088815260200190815260200160002060050160006101000a81548160ff0219169083151502179055505b505050505050565b60008054906101000a900473ffffffffffffffffffffffffffffffffffffffff1673ffffffffffffffffffffffffffffffffffffffff163373ffffffffffffffffffffffffffffffffffffffff16141561064957600080fd5b6001600081548092919061065c90611118565b91905055506000600154905060006040518060c001604052808381526020018781526020013373ffffffffffffffffffffffffffffffffffffffff168152602001868152602001858152602001841515815250905080600260008481526020019081526020016000206000820151816000015560208201518160010190805190602001906106eb9291906109b2565b5060408201518160020160006101000a81548173ffffffffffffffffffffffffffffffffffffffff021916908373ffffffffffffffffffffffffffffffffffffffff1602179055506060820151816003015560808201518160040190805190602001906107599291906109b2565b5060a08201518160050160006101000a81548160ff021916908315150217905550905050600360003373ffffffffffffffffffffffffffffffffffffffff1673ffffffffffffffffffffffffffffffffffffffff168152602001908152602001600020829080600181540180825580915050600190039060005260206000200160009091909190915055505050505050565b6002602052806000526040600020600091509050806000015490806001018054610814906110b5565b80601f0160208091040260200160405190810160405280929190818152602001828054610840906110b5565b801561088d5780601f106108625761010080835404028352916020019161088d565b820191906000526020600020905b81548152906001019060200180831161087057829003601f168201915b5050505050908060020160009054906101000a900473ffffffffffffffffffffffffffffffffffffffff16908060030154908060040180546108ce906110b5565b80601f01602080910402602001604051908101604052809291908181526020018280546108fa906110b5565b80156109475780601f1061091c57610100808354040283529160200191610947565b820191906000526020600020905b81548152906001019060200180831161092a57829003601f168201915b5050505050908060050160009054906101000a900460ff16905086565b6040518060c001604052806000815260200160608152602001600073ffffffffffffffffffffffffffffffffffffffff16815260200160008152602001606081526020016000151581525090565b8280546109be906110b5565b90600052602060002090601f0160209004810192826109e05760008555610a27565b82601f106109f957805160ff1916838001178555610a27565b82800160010185558215610a27579182015b82811115610a26578251825591602001919060010190610a0b565b5b509050610a349190610a38565b5090565b5b80821115610a51576000816000905550600101610a39565b5090565b6000610a68610a6384610f3e565b610f19565b905082815260208101848484011115610a8057600080fd5b610a8b848285611073565b509392505050565b600081359050610aa2816111ff565b92915050565b600081359050610ab781611216565b92915050565b600082601f830112610ace57600080fd5b8135610ade848260208601610a55565b91505092915050565b600081359050610af68161122d565b92915050565b600060208284031215610b0e57600080fd5b6000610b1c84828501610a93565b91505092915050565b60008060008060808587031215610b3b57600080fd5b600085013567ffffffffffffffff811115610b5557600080fd5b610b6187828801610abd565b9450506020610b7287828801610ae7565b935050604085013567ffffffffffffffff811115610b8f57600080fd5b610b9b87828801610abd565b9250506060610bac87828801610aa8565b91505092959194509250565b600060208284031215610bca57600080fd5b6000610bd884828501610ae7565b91505092915050565b600080600080600060a08688031215610bf957600080fd5b6000610c0788828901610ae7565b955050602086013567ffffffffffffffff811115610c2457600080fd5b610c3088828901610abd565b9450506040610c4188828901610ae7565b935050606086013567ffffffffffffffff811115610c5e57600080fd5b610c6a88828901610abd565b9250506080610c7b88828901610aa8565b9150509295509295909350565b6000610c948383610dbf565b905092915050565b610ca58161102b565b82525050565b610cb48161102b565b82525050565b6000610cc582610f7f565b610ccf8185610fa2565b935083602082028501610ce185610f6f565b8060005b85811015610d1d5784840389528151610cfe8582610c88565b9450610d0983610f95565b925060208a01995050600181019050610ce5565b50829750879550505050505092915050565b610d388161103d565b82525050565b610d478161103d565b82525050565b6000610d5882610f8a565b610d628185610fb3565b9350610d72818560208601611082565b610d7b816111ee565b840191505092915050565b6000610d9182610f8a565b610d9b8185610fc4565b9350610dab818560208601611082565b610db4816111ee565b840191505092915050565b600060c083016000830151610dd76000860182610e4f565b5060208301518482036020860152610def8282610d4d565b9150506040830151610e046040860182610c9c565b506060830151610e176060860182610e4f565b5060808301518482036080860152610e2f8282610d4d565b91505060a0830151610e4460a0860182610d2f565b508091505092915050565b610e5881611069565b82525050565b610e6781611069565b82525050565b6000602082019050610e826000830184610cab565b92915050565b60006020820190508181036000830152610ea28184610cba565b905092915050565b600060c082019050610ebf6000830189610e5e565b8181036020830152610ed18188610d86565b9050610ee06040830187610cab565b610eed6060830186610e5e565b8181036080830152610eff8185610d86565b9050610f0e60a0830184610d3e565b979650505050505050565b6000610f23610f34565b9050610f2f82826110e7565b919050565b6000604051905090565b600067ffffffffffffffff821115610f5957610f586111bf565b5b610f62826111ee565b9050602081019050919050565b6000819050602082019050919050565b600081519050919050565b600081519050919050565b6000602082019050919050565b600082825260208201905092915050565b600082825260208201905092915050565b600082825260208201905092915050565b6000610fe082611069565b9150610feb83611069565b9250827fffffffffffffffffffffffffffffffffffffffffffffffffffffffffffffffff038211156110205761101f611161565b5b828201905092915050565b600061103682611049565b9050919050565b60008115159050919050565b600073ffffffffffffffffffffffffffffffffffffffff82169050919050565b6000819050919050565b82818337600083830152505050565b60005b838110156110a0578082015181840152602081019050611085565b838111156110af576000848401525b50505050565b600060028204905060018216806110cd57607f821691505b602082108114156110e1576110e0611190565b5b50919050565b6110f0826111ee565b810181811067ffffffffffffffff8211171561110f5761110e6111bf565b5b80604052505050565b600061112382611069565b91507fffffffffffffffffffffffffffffffffffffffffffffffffffffffffffffffff82141561115657611155611161565b5b600182019050919050565b7f4e487b7100000000000000000000000000000000000000000000000000000000600052601160045260246000fd5b7f4e487b7100000000000000000000000000000000000000000000000000000000600052602260045260246000fd5b7f4e487b7100000000000000000000000000000000000000000000000000000000600052604160045260246000fd5b6000601f19601f8301169050919050565b6112088161102b565b811461121357600080fd5b50565b61121f8161103d565b811461122a57600080fd5b50565b61123681611069565b811461124157600080fd5b5056fea26469706673582212209bd541b56fb2b51629d6376b211507a6076b448fe107d2e5b408fd7088cbe5ce64736f6c63430008010033",
  "linkReferences": {},
  "deployedLinkReferences": {}
}